:0400000080314128E2
:1000060008007E1480310030860000308700FD0134
:100016008B13210091127D30F0008D31F025803157
:10002600FC007C080319182819283C287D0884310F
:10003600842480318F31342780317308FB007208A5
:10004600FA008731F1278031243A031D2B282C280A
:100056003C287B08803AF90080307902031D352858
:1000660002307A02031C382839283C280130210046
:10007600D000210091168B177E100900803143288D
:1000860021008731FE278031D1008731FF2780315B
:10009600D200F0308400233085000030FE000430AA
:1000A600FF008C31B6248031C530840000308500D5
:1000B6000C30FE000030FF008C31B6248031203039
:1000C6008400013085002030FE000030FF008C31B6
:1000D600B62480317E1020008231D32A20004808C1
:1000E60086008701403FCA00413FCB004A08840092
:1000F6004B0885001200253A031D822883285829BB
:100106004808860087010130810741310318810ABA
:100116002100C501C6010030CD00FF30C700FF3009
:10012600C8002000CE01B6282100CD1420004808C2
:10013600860087010130810741310318810AB628FC
:100146000130CE00B628480886008701403FCA0025
:10015600413FCB004A0884004B0885000008303A2E
:1001660003199728A3284E080319BA28BB28A628DE
:100176004808A6004908A7008531E22580312000FD
:1001860027082100C600200026082100C500C61F3A
:10019600CD28CE28D4284D14C509C609C50A031989
:1001A600C60A2000480886008701403FD300413F29
:1001B600D40053088400540885001200643A0319D9
:1001C600E528E628F0285308840054088500120024
:1001D600693A031DEF28F02815294908860087018A
:1001E60001088400850102308107003FCF00013FEE
:1001F600D0005308013ECA000030543DCB004808E9
:10020600860087014A08C03F4B08C13F4708BA002D
:100216004608B9005008BC004F08BB008131732165
:100226008031722953088400540885001200783AF8
:10023600031D1E291F294E2949088600870101082A
:100246008400850102308107003FCF00013FD000C6
:100256005308013ECA000030543DCB0048088600D2
:1002660087014A08C03F4B08C13F45294708BA00E5
:100276004608B9005008BC004F08BB008431FC2476
:100286008031722953088400540885000008783AA2
:10029600031939294E2920004808860087010130B4
:1002A600810741310318810A7229480886008701AF
:1002B600403FCA00413FCB004A0884004B088500F6
:1002C6000008CC00CD014C08A0004D08A10047084D
:1002D600A3004608A2008631F32680314E29080085
:1002E60001302000C000BC1B79297B2901307C2904
:1002F6000030C300210046082000C2002100450846
:100306002000C1004308031989298A299E29FF3044
:10031600C107FF30C23D4308031D9229932998293E
:100326002B30BE000030BF009C292D30BE000030AF
:10033600BF003E08C3001F30C4000030C5002200C5
:10034600BF01DB29FF302000C407FF30C53D44084C
:10035600203E8600013087000A30A0000030A10050
:100366003C08A3003B08A20087319F27813120006B
:100376002108A7002008A6008C31F5248131200031
:100386002608303E8100C001FF30C107FF30C23D64
:100396000A30A0000030A1003C08A3003B08A200E0
:1003A60086313E26813120002108BC002008BB0092
:1003B60020004508803ABD0080303D02031DE52936
:1003C60001304402031CE829E929072A20003B08DA
:1003D6003C04031DEF29F029A5294008031DF42933
:1003E600F529A5294208803ABD0080303D02031D4B
:1003F600FE2901304102031C012A022A072A210094
:10040600CD18062A072AA5292000430803190C2A15
:100416000D2A182AFF30C407FF30C53D4408203E88
:10042600860001308700430881003A08B200390887
:10043600B1004408203EB3004208B5004108B400AC
:100446008F316A27813108008B132100111691160E
:100456000E178E1723009F159F101D169D171E122F
:100466001E159E1620003C083B043A043904031965
:100476003D2A3E2ACD2A23009F1D422A432A4B2A83
:100486001E1D462A472A4B2A04302000C5006B2A27
:100496009F1D4E2A4F2A572A1E19522A532A572A77
:1004A60010302000C5006B2A9F195A2A5B2A602A41
:1004B6001E1D5E2A5F2A602A532A9F19632A642A10
:1004C6006B2A1E19672A682A6B2A40302000C5004D
:1004D60023001E1E6F2A702A732A40302000C50092
:1004E60020004508BD00BE01BF01C0014008A300B1
:1004F6003F08A2003E08A1003D08A0003C08A70056
:100506003B08A6003A08A5003908A4008F31002749
:10051600823120002308AF002208AE002108AD007A
:100526002008AC000130B3003130B2002D30B100EC
:100536000030B00086319A268231FF3020002C0729
:10054600C100FF302D3DC200FF302E3DC300FF30FD
:100556002F3DC4004108BD004208BE004308BF004D
:100566004408C0000830C036BF0CBE0CBD0C890B59
:10057600B62A3D0823009C00FF3020004105BD003F
:1005860000304205BE003D0823009B0020003E08C7
:1005960023009C000B172100911611128B170800DF
:1005A60000302000BC000030BB000030BA00003034
:1005B600B9008231272282318E31A32682318E31D3
:1005C60053268231210091168B17210050080319FA
:1005D600ED2AEE2A672B20008E110E1687314C2746
:1005E600823187314C2782312100C40031304406E4
:1005F600031DFE2AFF2A032B8331FD238231632B41
:1006060032304406031D082B092B0D2B853172252C
:100616008231632B33304406031D122B132B172B09
:10062600833171238231632B55304406031D1C2B05
:100636001D2B262B4A302000A0009030A1008E31C1
:1006460079268231632B35304406031D2B2B2C2B48
:10065600302B8E31CE268231632B34304406031D77
:10066600352B362B5C2B03304E06031D3B2B3C2BC8
:10067600452B84302000A0009030A1008E317926D1
:100686008231632B4E08031D492B4A2B532B7F3097
:100696002000A0009030A1008E3179268231632B94
:1006A60079302000A0009030A1008E317926823169
:1006B600632B39304406031D612B622B632B01002B
:1006C6008D31452582316A2B20008E150E12103091
:1006D600890B6B2B0032E82A80314128013021003A
:1006E600C00022000E108E140E152100C201C30197
:1006F600E22B5008031D802B812B8A2B2C302000E7
:10070600A0009030A1008E3179268331FC2B43085E
:100716002000A100210042082000A0008C31C22444
:1007260083318C31D22483312100C100410A03195F
:100736009D2B9E2BDE2B00302000A0009030A100C8
:100746008E3179268331A0302000DD005730DE005F
:100756009030DF00210043082000E100210042081C
:100766002000E0008D31D2258331A0302000A0008A
:100776000030A1008E3179268331A0302000DD00C3
:100786006A30DE009030DF00210041082000EE00D4
:10079600EF016E08E0006F08E1008D31D22583314C
:1007A600A0302000A0000030A1008E3179268331D0
:1007B6002100C001EC2B0130C2070030C33D4A08BE
:1007C6004302031DE82B49084202031CEB2BEC2BCA
:1007D6007C2B22000E14210040080319F32BF42B66
:1007E600FC2B92302000A0009030A1008E3179269B
:1007F600833108002100B10122000E108E140E155F
:100806002100B201B301772C5008031D0B2C0C2CD0
:10081600152C3B302000A0009030A1008E317926A7
:100826008331832C33082000A100210032082000E8
:10083600A0008C31C22483318C31D2248331210033
:10084600B0003108031D282C292C432CA030200091
:10085600DD007230DE009030DF002100330820001A
:10086600E100210032082000E0008D31D2258331DD
:10087600A0302000A0000030A1008E3179268331FF
:10088600A0302000DD008930DE009030DF0021003E
:1008960030082000EE00EF016E08E0006F08E1006E
:1008A6008D31D2258331A0302000A0000030A10078
:1008B6008E31792683310F3021003106031D642CD9
:1008C600652C6B2CB1010A308D311A258331722CBF
:1008D60020308D311A25833101302100B1070130D6
:1008E6002100B2070030B33D4A083302031D7D2CB8
:1008F60049083202031C802C812C072C22000E147E
:100906000800F80021005208F1005108F0008C316F
:10091600E324843121004B087002F4004C08713B3B
:10092600F5007508803AF20083307202031D9D2C93
:10093600E1307402031CA02CA12CA62C01308C31B2
:10094600AE248431AA2C00308C31AE2484312100AF
:100956005208F1005108F0008C31E324843171080B
:10096600F7007008F6007708F1007608F0008C3181
:10097600E324843121004C087106031DC42C4B0866
:100986007006031DC72CC82CE32C20000E1603305E
:10099600F3008A30F2005630890BCF2CF20BCF2CA5
:1009A600F30BCF2C20000E120330F3008A30F20036
:1009B6005630890BDC2CF20BDC2CF30BDC2CFB2CDD
:1009C6005208F1005108F0008C31E324843171089B
:1009D6002100D2007008D100F030F2002330F3007D
:1009E6005108720786005208733D87007808810017
:1009F600080001302000BE00210046082000C0008B
:100A0600210045082000BF001F30C2000030C3008F
:100A16002200BF01362DFF302000C207FF30C33D44
:100A26003B080F39C1000A30410203181B2D1C2D4B
:100A36001F2D3030C107212D5730C1074208203EF7
:100A460086000130870041088100BE01FF30BF07E4
:100A5600FF30C03D3B0E0F39BB003C0EF039BB04E6
:100A66003C0E0F39BC0020004308803ABD008030A0
:100A76003D02031D402D02304202031C432D442D2E
:100A8600622D20003B083C04031D4A2D4B2D0E2DE4
:100A96003E08031D4F2D502D0E2D4008803ABD00F7
:100AA60080303D02031D592D01303F02031C5C2D91
:100AB6005D2D622D2100CD18612D622D0E2D200099
:100AC6003A08B2003908B1004208203EB300400897
:100AD600B5003F08B4008F316A2784310800210031
:100AE6008F0122000E108E100E1521302000A50059
:100AF6007630890B7C2DA50B7C2D00002000A901EA
:100B0600AA01C42D21005008031D8A2D8B2D942D7A
:100B16001D302000A0009030A1008E31792685314D
:100B2600E12D87314C2785312000AB002B088D3114
:100B36002E2585312000A60087314C2785312000DF
:100B4600AB002B088D312E2585312000A700260805
:100B5600A5000430A535890BAD2D25082707A8006B
:100B66002A08A1002908A0008C31C2248531200062
:100B760028088D319725853101302000A9070030DE
:100B8600AA3D21004A0820002A02031DCE2D21007D
:100B9600490820002902031CD12DD22D852D2200C3
:100BA6000E108E100E15FF3021008F00923020009F
:100BB600A0009030A1008E317926853108002000F2
:100BC600AC01AD01260886008701403FA800413FE1
:100BD600A900280884002908850012002A3A031D66
:100BE600F52DF62D252E2608860087010130810772
:100BF60041310318810A270886008701010884000D
:100C0600850102308107003FAC00013FAD00392E5F
:100C16002D08A1002C08A0000A30A2000030A30075
:100C26008E310F26853120002B082007AC000030BE
:100C3600213DAD002608860087010130810741313C
:100C46000318810A260886008701403FA800413F15
:100C5600A90028088400290885000008D03EAB00BA
:100C66000A302B02031C382E392E0B2E2D08A70016
:100C76002C08A60008002000A501A11F432E442E23
:100C86004B2EA009A109A00A0319A10A0130A5004B
:100C9600A31F4E2E4F2E562EA209A309A20A0319F0
:100CA600A30A0130A506A601A701200821040319FD
:100CB6005D2E5E2E8B2E0130A400682E0130A035ED
:100CC600A10D890B622E0130A407A11F6B2E6C2E7D
:100CD600612E0130A635A70D890B6D2E2108230242
:100CE600031D772E20082202031C7A2E7B2E802ECF
:100CF6002008A2022108A33B26140130A136A00C2D
:100D0600890B812E0130A402031D8A2E8B2E6C2E98
:100D1600250803198F2E902E952EA609A709A60A37
:100D26000319A70A2708A1002608A000080000301A
:100D36002000B7000030B6000030B5000030B40027
:100D46002F082E042D042C040319AA2EAB2EEA2EEE
:100D56000130B800B72E0130AC35AD0DAE0DAF0D7C
:100D6600890BAF2E0130B807AF1FBA2EBB2EAE2EA1
:100D76000130B435B50DB60DB70D890BBC2E2F0855
:100D86003302031DD02E2E083202031DD02E2D084D
:100D96003102031DD02E2C083002031CD32ED42E74
:100DA600DD2E2C08B0022D08B13B2E08B23B2F08D1
:100DB600B33B34140130AF36AE0CAD0CAC0C890B22
:100DC600DE2E0130B802031DE92EEA2EBB2E3708AF
:100DD600AF003608AE003508AD003408AC00080098
:100DE6002000220823040319F92EFA2E002F2208C8
:100DF6002304031DFF2E002F052F2008803103201A
:100E060086314B2F220886008701493116000104DE
:100E160003190E2F0F2F2D2F220886008701493127
:100E2600403FA400413FA5002208860087014231C9
:100E3600403FA600413FA7002708803AA8002508A2
:100E4600803A2802031D292F2408260203182C2F76
:100E56002D2F4B2F200022088600870142312208C1
:100E6600840023088500003FA400013FA500403F01
:100E760024078400413F253D850020088000220884
:100E86008600870142310130810741310318810A0A
:100E960008006B2F20008E1503302000A3008A3037
:100EA600A2005530890B552FA20B552FA30B552F9A
:100EB600003220008E1103302000A3008A30A200E9
:100EC6005530890B642FA20B642FA30B642F0032BD
:100ED6008D317A258731003A031D722F732F4D2FDE
:100EE6008B1321009112F0302000A2002330A300C2
:100EF60021004B0820002207860021004C08200014
:100F0600233D87000108A40021004C082000A10011
:100F160021004B082000A0008D31072587312000D5
:100F260021082100CC00200020082100CB008B17CF
:100F360091162000240808002000A501A31FA42F55
:100F4600A52FAC2FA209A309A20A0319A30A0130EF
:100F5600A500A11FAF2FB02FB52FA009A109A00A88
:100F66000319A10A200821040319BA2FBB2FE22F67
:100F76000130A400C52F0130A035A10D890BBF2F6C
:100F86000130A407A11FC82FC92FBE2F2108230295
:100F9600031DCF2F20082202031CD22FD32FD72FB9
:100FA6002008A2022108A33B0130A136A00C890B20
:100FB600D82F0130A402031DE12FE22FC92F2508E7
:100FC6000319E62FE72FEC2FA209A309A20A03199A
:100FD600A30A2308A1002208A0000800F030F000B0
:100FE6002330F10021004B08700786004C08713D44
:0A0FF600870001080800FF340334EF
:10195C00F000700C2000031C0C1203180C1608006D
:10196C006400800101310130FE020030FF3B7F0832
:10197C007E04031DB72C003420002108A20020088F
:10198C0022008D0020002208073922008C00103024
:10199C00890BCE2C00320800FF3021008F00003262
:1019AC000032000022000E108E14003200320000B3
:1019BC0020000F08A00020080800700A033003194B
:1019CC007106031DEA2CEB2CEE2CF001F101F42C2A
:1019DC007008013EF0000030713DF100080020005D
:1019EC00A71BF92CFA2CFB2C062D2609A80027097D
:1019FC00A900A80A0319A90A2808A6002908A70003
:101A0C0008002000200A033003192106031D0F2DA6
:101A1C00102D132DA001A101192D2008013EA000AD
:101A2C000030213DA10008002000A0001E2D000068
:101A3C002000111E222D232D1D2D200823009A007D
:101A4C00282D000023009E1C2C2D2D2D272D080049
:101A5C002000A00061302002031C352D362D392DBD
:101A6C002008A93E442D41302002031C3E2D3F2D61
:101A7C00422D2008C93E442D2008D03E0800F030ED
:101A8C002000A0002330A1000030A200A3000030F1
:101A9C00A4000430A5008D315D258D312100CB01D2
:101AAC00CC01FF30D1000330D200D001080020005F
:101ABC002108A7002008A6006D2D260886002708FF
:101ACC008700220881000130A6070030A73D0130B5
:101ADC00A4020030A53B240A031D782D250A031D02
:101AEC00782D792D632D0800210052082000A100CB
:101AFC00210051082000A0008D3107258D312100D7
:101B0C004C0820002106031D8F2D21004B082000BE
:101B1C002006031D922D932D952D0130962D00300E
:101B2C0008002000A1000032003200002000210833
:101B3C0022008F001030890BA12D003222000E11D3
:101B4C0007302000A0007D30890BAA2DA00BAA2DF8
:101B5C0022000E1500320032000008002000580848
:101B6C00DC005708DB00C52D5608C7005508C60019
:101B7C005B30C8005908C900803171208D312000BC
:101B8C005B0884005C0885001200031DCE2DCF2D50
:101B9C00BA2DD501D601080060302000E2005D08A6
:101BAC00E300E401E501E601EC01ED016330D50051
:101BBC000030D6005F08D8005E08D7006230D9002C
:101BCC008D31B4258D3120005D08650786008701B5
:101BDC0081010800F10123001D1DF52DF62DF82DB6
:101BEC0019080D2E9D1CFB2DFC2DFF2D1D121D16F5
:101BFC000D2E2000911E032E042E0D2E7008860033
:101C0C008701230019087F3981000130F100710828
:101C1C0008002000A401A501201C152E162E1A2E3A
:101C2C002208A4072308A53D0130A235A30D890B7A
:101C3C001B2E0130A136A00C890B202E200821046C
:101C4C00031D292E2A2E122E2508A1002408A000DF
:101C5C0008002000AF01B001462E2E08AC00AD01EB
:101C6C002C08A0002D08A1002B08A3002A08A20014
:101C7C008631F3268E3101302000AF070030B03DA5
:101C8C0029082F078600013087000108AE002E08B6
:101C9C00031D512E522E332E08008F31B2278E3158
:101CAC00200021082100A900200020082100A80004
:101CBC00A0302000DD008E30DE009030DF002100EF
:101CCC0029082000E100210028082000E0008D31C7
:101CDC00D2258E31A0302000A0000030A1008E3122
:101CEC0079268E3108007B2E00002000111E7F2EDD
:101CFC00802E7A2E2108A4002008A300982E2308F9
:101D0C00840024088500000823009A00013020007C
:101D1C00A3070030A43D932E000023009E1C972E99
:101D2C00982E922E2000230884002408850012008F
:101D3C00031DA12EA22E852E080021001D102300AC
:101D4C008C018D018E018F01900121000C108C10E3
:101D5C000C118C150C128C1620000C1221008D010C
:101D6C000E108E100E118E110E128E120E178E1763
:101D7C0020000E148E140E158E110E128E12FF30C2
:101D8C0021008F00900122001010901010110800FB
:101D9C0087314C278E31D03E2100CE0004304E06C8
:101DAC00031DD92EDA2EE12E0030C9000830CA00EE
:101DBC0022001014F72E03304E06031DE62EE72EDC
:101DCC00EE2E0030C9000430CA0022001010F72E8D
:101DDC0061302000A0009030A1008E3179268E3128
:101DEC00FF2E92302000A0009030A1008E31792679
:101DFC008E31080000302000AB000030AA0000300B
:101E0C00A9000030A800201C0C2F0D2F152F240822
:101E1C00A8072508A93D2608AA3D2708AB3D013097
:101E2C00A435A50DA60DA70D890B162F0130A336D1
:101E3C00A20CA10CA00C890B1D2F23082204210439
:101E4C002004031D2A2F2B2F092F2B08A3002A084F
:101E5C00A2002908A1002808A000080021005208AF
:101E6C00F1005108F0008C31E3248F3121004B0834
:101E7C007002F5004C08713BF6007608803AF400CD
:101E8C0083307402031D4C2FE1307502031C4F2F5D
:101E9C00502F542F01308C31AE248F317608803A7C
:101EAC00F40080307402031D5D2F2030750203187E
:101EBC00602F612F652F00308C31AE248F31760866
:101ECC00F3007508F200080021004D1C6E2F6F2FD7
:101EDC00792F20003308A9003208AB003108AA0082
:101EEC008E312F268F312000B51F7D2F7E2F802F16
:101EFC00B401B501B701B801942F20302000A00027
:101F0C000030A1003208A3003108A2008631F3266C
:101F1C008F3101302000B7070030B83D3808803AC7
:101F2C00B6003508803A3602031D9E2F340837025E
:101F3C00031CA12FA22F832F21004D18A62FA72FF2
:101F4C00B12F20003308A9003208AB003108AA00D9
:101F5C008E312F268F3108002100911223001F147F
:101F6C002000911EBA2FBB2FBE2F23001908E22F81
:101F7C000E1607302000A3005830A2005930890BF0
:101F8C00C52FA20BC52FA30BC52F003220000E129C
:101F9C0007302000A3005830A2005930890BD42FF1
:101FAC00A20BD42FA30BD42F003223009F1FDF2FA3
:101FBC00E02FB62F9F13B62F1C082000A200A30100
:101FCC002208A300A20123001B0820002204A50064
:101FDC0023001C0820002304A6002508A7002608BF
:101FEC00A8000E122100911620002808A100270835
:101FFC00A0000800453472346134733465342034E5
:10200C0063346834653463346B342034663461343F
:10201C0069346C3420346134743420346134643465
:10202C00643472346534733473342034003457346C
:10203C0072346934743465342034613462346F34EE
:10204C0072347434653464340A3400344334683480
:10205C00653463346B342034613462346F347234DD
:10206C007434653464340A34003452346534613465
:10207C0064342034613462346F34723474347434A4
:10208C00653464340A34003441346C34723465344D
:10209C00613464347934203469346E346934743482
:1020AC0000343034783425343034343478342034BB
:1020BC003D3420340034623461346434203474345C
:1020CC007934703465340034303478342534303419
:1020DC00323478340A34003425343034343478349F
:1020EC003A34203400344534523452344F34523460
:1020FC0000343234373431343634003432343734FB
:10210C0030343834003425343034323478340034BC
:0E211C00253464340A3400344F344B3400341C
:020000040001F9
:04000E00E239FF3E96
:00000001FF
