:0400000080314028E3
:100008007E1480312000A3018B132100911223302C
:100018008D31E42580312000A2002208031915281B
:1000280016283B2823088531122580318731C527BA
:10003800803173082000A1007208A0008C31A4242C
:100048008031243A031D29282A283B28200021082A
:10005800803AFB0080307B02031D342802302002E6
:10006800031C372838283B282100D701D70A21004C
:1000780091168B177E100900803142288731FA27A4
:100088008031E6008731FB278031E700F0308400BB
:10009800233085000030FE000430FF008C31B0248E
:1000A8008031FC01FD01E301E401E5012100D101FA
:1000B800D201D301D401D501D601D7012030840063
:1000C800013085002030FE000030FF008C31B02464
:1000D80080317E1020008231CE2A2000D1004608CF
:1000E80086008701403FC800413FC9004808840096
:1000F800490885001200253A031D832884285729BA
:100108004608860087010130810741310318810ABA
:100118002100D101D2010310003003180130200062
:10012800E300FF302100D300FF30D4002000CC01D1
:10013800BA28E31446088600870101308107413157
:100148000318810ABA28CC01CC0ABA2846088600C6
:100158008701403FC800413FC9004808840049085A
:1001680085000008303A03199D28A7284C08031970
:10017800BE28BF28AA284708AA00460886310426B0
:10018800803120002B082100D20020002A082100FD
:10019800D100D21FD028D128D928200063142100EB
:1001A800D109D209D10A0319D20A200046088600CB
:1001B8008701403FD200413FD300520884005308D2
:1001C80085001200643A0319EA28EB28F52852083A
:1001D8008400530885001200693A031DF428F528A5
:1001E8001729470886008701010884008501023025
:1001F8008107003FCD00013FCE005208013EC800F4
:100208000030533DC9004608860087014808C03FB2
:100218004908C13F4E08BB004D08BA00510881315A
:10022800702180316F29520884005308850012001C
:10023800783A031D202921294D294708860087017E
:1002480001088400850102308107003FCD00013F8D
:10025800CE005208013EC8000030533DC900460890
:10026800860087014808C03F4908C13F44294E0815
:10027800BB004D08BA00510885318D2580316F29A2
:1002880052088400530885000008783A03193B296E
:100298004D29200046088600870101308107413139
:1002A8000318810A6F29460886008701403FC80065
:1002B800413FC90048088400490885000008CA0071
:1002C800CB014A08A4004B08A5005108A6008731B5
:1002D800732780314D2908002000BD00C001C00AE5
:1002E800BB1B7729792901307A290030C300210006
:1002F80052082000C200210051082000C100430814
:100308000319872988299C29FF30C107FF30C23D7E
:100318004308031D9029912996292B30BE000030EF
:10032800BF009A292D30BE000030BF003E08C30030
:100338001F30C4000030C5002200BF01D829FF309B
:10034800C407FF30C53D4408203E860001308700C1
:100358000A30A4000030A5003B08A7003A08A60010
:1003680087311F27813120002508AC002408AB0005
:100378008C31EF24813120002B08303E8100C001F0
:10038800FF30C107FF30C23D0A30A4000030A5008D
:100398003B08A7003A08A600863164268131200070
:1003A8002508BB002408BA0020004508803ABC0094
:1003B80080303C02031DE22901304402031CE52978
:1003C800E629042A20003A083B04031DEC29ED29FC
:1003D800A3294008031DF129F229A3294208803ADC
:1003E800BC0080303C02031DFB2901304102031C84
:1003F800FE29FF29042A2000E318032A042AA32936
:10040800200043080319092A0A2A152AFF30C407BD
:10041800FF30C53D4408203E860001308700430870
:1004280081004408203EB3004208B5004108B400EA
:100438003D088F312A27813108008B1321001116BE
:1004480091160E178E1723009F159F101D169D17C6
:100458001E121E159E162000410840043F043E044B
:100468000319372A382AC82A23009F1D3C2A3D2A07
:10047800452A1E1D402A412A452A04302000CA0068
:10048800662A9F1D482A492A512A1E194C2A4D2A94
:10049800512A10302000CA00662A9F19542A552A6A
:1004A8005A2A1E1D582A592A5A2A4D2A9F195D2A46
:1004B8005E2A662A1E19612A622A662A40302000AE
:1004C800CA00662A23001E1E6A2A6B2A6E2A40303A
:1004D8002000CA0020004A08C200C301C401C501A7
:1004E8004508A7004408A6004308A5004208A40040
:1004F8004108AB004008AA003F08A9003E08A80030
:100508008E31F626823120002708B3002608B20073
:100518002508B1002408B0000130B7003130B6001A
:100528002D30B5000030B4008631C4268231FF304A
:1005380020003007C600FF30313DC700FF30323D94
:10054800C800FF30333DC9004608C2004708C30051
:100558004808C4004908C5000830C536C40CC30C97
:10056800C20C890BB12A420823009C00FF302000EE
:100578004605C20000304705C300420823009B001F
:100588002000430823009C000B172100911611122C
:100598008B17080000302000C1000030C000003078
:1005A800BF000030BE008231212282318E31982670
:1005B80082318E3149268231210091168B17210014
:1005C80057080319E82AE92A5F2B20008E110E1616
:1005D8008F31692782318F31692782312000E2000B
:1005E80031306206031DF92AFA2AFE2A84318A2448
:1005F80082315B2B32306206031D032B042B082B40
:100608008331692382315B2B33306206031D0D2B46
:100618000E2B122B8431002482315B2B553062065D
:10062800031D172B182B202B4A30A4009030A5004F
:100638008E316E2682315B2B35306206031D252BE9
:10064800262B2A2B8E31C32682315B2B343062064F
:10065800031D2F2B302B532B03306406031D352B22
:10066800362B3E2B8430A4009030A5008E316E26A8
:1006780082315B2B6408031D422B432B4B2B7F30AD
:10068800A4009030A5008E316E2682315B2B793024
:10069800A4009030A5008E316E2682315B2B393054
:1006A8006206031D582B592B5B2B01005B2B8D31E8
:1006B80056258231622B20008E150E121030890BC0
:1006C800632B0032E32A8031402821008F01220069
:1006D8000E108E100E1521302000A9007630890BDF
:1006E800732BA90B732B00008F31692783312000EE
:1006F800B60036088D313F2583312000AF008F3199
:10070800692783312000B60036088D313F258331B3
:100718002000B0003008A900AA012F08AB00AC01E6
:10072800AB0EAC0EF030AC052B080F39AC04F03032
:10073800AB0529082B07AD002A082C3DAE00B401F3
:10074800B501E62B21005708031DAB2BAC2BB52BAD
:100758001D302000A4009030A5008E316E26833114
:10076800FF2B8F31692783312000B60036088D3181
:100778003F2583312000B1008F3169278331200064
:10078800B60036088D313F2583312000B20031088C
:10079800A9000330A935FF3E031DCE2B29353207AA
:1007A800B3003508A5003408A4008C31BC2483317B
:1007B800200033088D31A825833101302000B4078B
:1007C8000030B53D2E083502031DEC2B2D083402F0
:1007D800031CEF2BF02BA62B22000E108E100E15EB
:1007E800FF3021008F0092302000A4009030A50037
:1007F8008E316E26833108002100CD01CD0A2200FA
:100808000E108E140E152100CF01D0016F2C570841
:10081800031D0F2C102C192C2C302000A400903014
:10082800A5008E316E268431892C50082000A50041
:1008380021004F082000A4008C31BC2484318C3165
:10084800CC2484312100CE004E0A03192C2C2D2CE7
:100858006B2C00302000A4009030A5008E316E264D
:10086800843157302000DB009030DC002100500834
:100878002000DE0021004F082000DD00AD308D3162
:10088800C5258431AD302000A4000030A5008E318C
:100898006E2684316A302000DB009030DC002100B5
:1008A8004E082000E000E1016008DD006108DE007C
:1008B800AD308D31C5258431AD302000A400003025
:1008C800A5008E316E2684312100CD01792C0130AE
:1008D800CF070030D03D56085002031D752C55082F
:1008E8004F02031C782C792C0B2C22000E142100AB
:1008F8004D080319802C812C892C92302000A400EB
:100908009030A5008E316E26843108002100BE018A
:1009180022000E108E140E152100BF01C001052DF6
:100928005708031D982C992CA22C3B302000A400BA
:100938009030A5008E316E268431112D400820009C
:10094800A50021003F082000A4008C31BC2484317C
:100958008C31CC2484312100BD003E08031DB52C08
:10096800B62CCF2C72302000DB009030DC00210048
:1009780040082000DE0021003F082000DD00AD30E7
:100988008D31C5258431AD302000A4000030A5008C
:100998008E316E26843189302000DB009030DC00F7
:1009A80021003D082000E000E1016008DD00610849
:1009B800DE00AD308D31C5258431AD302000A40076
:1009C8000030A5008E316E2684310F3021003E069E
:1009D800031DEF2CF02CF62CBE010A308D311425A6
:1009E8008431002D20308D311425843101302000D0
:1009F800E00060082100BE0701302100BF07003079
:100A0800C03D56084002031D0B2D55083F02031C2C
:100A18000E2D0F2D942C22000E140800FA00200031
:100A28006708F1006608F0008C31DD2485317C0808
:100A38007002F6007D08713BF7007708803AF200F3
:100A480083307202031D2A2DE1307602031C2D2DFE
:100A58002E2D332D01308C319C248531372D0030DB
:100A68008C319C24853120006708F1006608F0006D
:100A78008C31DD2485317108F9007008F800790897
:100A8800F1007808F0008C31DD2485317D0871068D
:100A9800031D502D7C087006031D532D542D6F2DFA
:100AA80020000E160330F3008A30F2005630890B0E
:100AB8005B2DF20B5B2DF30B5B2D20000E12033028
:100AC800F3008A30F2005630890B682DF20B682D3E
:100AD800F30B682D8C2D20006708F1006608F000E4
:100AE8008C31DD24853171082000E7007008E600AC
:100AF800F030F2002330F30066087207F40067084C
:100B0800733DF50074088600750887007A0881002F
:100B180008002000BD00BE01BE0A210052082000C6
:100B2800C000210051082000BF001F30C200003063
:100B3800C3002200BF01CB2DFF30C207FF30C33DE9
:100B48003A080F39C1000A3041020318AC2DAD2D07
:100B5800B22D3030BC003C08C107B62D5730BC0060
:100B68003C08C1074208203E860001308700410842
:100B78008100BE01FF30BF07FF30C03D3A0E0F397C
:100B8800BA003B0EF039BA043B0E0F39BB00200007
:100B98004308803ABC0080303C02031DD52D02304A
:100BA8004202031CD82DD92DF72D20003A083B040A
:100BB800031DDF2DE02DA02D3E08031DE42DE52D9E
:100BC800A02D4008803ABC0080303C02031DEE2D69
:100BD80001303F02031CF12DF22DF72D2000E31800
:100BE800F62DF72DA02D20004208203EB300400826
:100BF800B5003F08B4003D088F312A278531080029
:100C08002000B200B001B101320886008701403FE0
:100C1800AC00413FAD002C0884002D08850012006F
:100C28002A3A031D182E192E4B2E320886008701EA
:100C38000130810741310318810A2A08860087019B
:100C480001088400850102308107003FB000013FA0
:100C5800B1005F2E2F08AC00AD013108A5003008A7
:100C6800A4000A30A6000030A7008E310426863181
:100C780020002C082407B0002D08253DB1003208BB
:100C8800860087010130810741310318810A320843
:100C980086008701403FAC00413FAD002C0884002E
:100CA8002D0885000008D03EAF000A302F02031C33
:100CB8005E2E5F2E2E2E3108AB003008AA000800E9
:100CC8002000AA01A51F692E6A2E712EA409A50964
:100CD800A40A0319A50AAA01AA0AA71F742E752E29
:100CE8007E2EA609A709A60A0319A70A0130A8009B
:100CF8002808AA06AB01AC01240825040319852E8F
:100D0800862EB52EA901A90A922E0130A435A50D6B
:100D1800890B8A2E0130A8002808A907A51F952E3F
:100D2800962E892E0130AB35AC0D890B972E2508F0
:100D38002702031DA12E24082602031CA42EA52E7B
:100D4800AA2E2408A6022508A73B2B140130A53695
:100D5800A40C890BAB2E0130A902031DB42EB52EAD
:100D6800962E2A080319B92EBA2EBF2EAB09AC0944
:100D7800AB0A0319AC0A2C08A5002B08A40008002C
:100D880000302000BC000030BB000030BA0000304A
:100D9800B90033083204310430040319D42ED52E97
:100DA800162FBD01BD0AE32E0130B035B10DB20DCD
:100DB800B30D890BD92E0130B8003808BD07B31F11
:100DC800E62EE72ED82E0130B935BA0DBB0DBC0D75
:100DD800890BE82E33083702031DFC2E3208360231
:100DE800031DFC2E31083502031DFC2E3008340289
:100DF800031CFF2E002F092F3008B4023108B53B21
:100E08003208B63B3308B73B39140130B336B20C5D
:100E1800B10CB00C890B0A2F0130BD02031D152F30
:100E2800162FE72E3C08B3003B08B2003A08B10081
:100E38003908B00008002000AA01A71F242F252F79
:100E48002C2FA609A709A60A0319A70AAA01AA0A04
:100E5800A51F2F2F302F352FA409A509A40A031980
:100E6800A50A2408250403193A2F3B2F642FA9014A
:100E7800A90A472F0130A435A50D890B3F2F013052
:100E8800A8002808A907A51F4A2F4B2F3E2F250881
:100E98002702031D512F24082602031C542F552F07
:100EA800592F2408A6022508A73B0130A536A40C13
:100EB800890B5A2F0130A902031D632F642F4B2F72
:100EC8002A080319682F692F6E2FA609A709A60AF1
:100ED8000319A70A2708A5002608A400080020006F
:100EE80026080319782F792F7E2F2608031D7D2FBA
:100EF8007E2F832F24088731FC278731C42F2608AB
:100F0800093E860087011600010403198C2F8D2FD6
:100F1800AB2F2608093E86008701403FA700413FC6
:100F2800A8002608023E86008701403FA900413FED
:100F3800AA002A08803AAB002808803A2B02031D31
:100F4800A72F270829020318AA2FAB2FC42F200088
:100F58002608860087012608023E840085010008CD
:100F68000107A700270886008701240881002608B2
:100F7800023E860087010130810741310318810A4A
:100F8800080020006708F1006608F0008C31DD24B5
:100F980087317C087002F5007D08713BF600760801
:100FA800803AF40083307402031DDC2FE1307502AF
:100FB800031CDF2FE02FE42F01308C319C24873174
:100FC8007608803AF40080307402031DED2F20303B
:100FD80075020318F02FF12FF52F00308C319C2467
:100FE80087317608F3007508F2000800FF340334EF
:020FF8000800EF
:10193800F000700C2000031C0C1203180C16080091
:10194800F030F0002330F1007C08700786007D0835
:10195800713D8700010808006400800101310130F1
:10196800FE020030FF3B7F087E04031DB12C0034CB
:1019780020002508A600240822008D002000260843
:10198800073922008C001030890BC82C003208005F
:10199800FF3021008F0000320032000022000E10BC
:1019A8008E1400320032000020000F08A400240822
:1019B8000800700A033003197106031DE42CE52C96
:1019C800E82CF001F101EE2C7008013EF000003027
:1019D800713DF10008002000AC1BF32CF42CF52C11
:1019E800002D2B09AD002C09AE00AD0A0319AE0A73
:1019F8002D08AB002E08AC0008002000240A033094
:101A080003192506031D092D0A2D0D2DA401A50175
:101A1800132D2408013EA4000030253DA500080030
:101A28002000A400182D00002000111E1C2D1D2DC3
:101A3800172D240823009A00222D000023009E1C45
:101A4800262D272D212D080020006708A5006608EF
:101A5800A4008D3101258D317D0820002506031D48
:101A6800372D7C082406031D3A2D3B2D3D2D0130D2
:101A78003E2D003008002000A40061302402031C21
:101A8800462D472D4A2D2408A93E552D41302402C4
:101A9800031C4F2D502D532D2408C93E552D2408C5
:101AA800D03E0800F0302000A4002330A50000300C
:101AB800A600A7000030A8000430A9008D318B25AE
:101AC8008D31FC01FD01FF302000E6000330E70006
:101AD8002100D70108002000D8005508DA00540872
:101AE800D9007E2D5930C6005608C70058088031E5
:101AF80071208D312000590884005A088500120091
:101B0800031D872D882D762DD401D50108002000CE
:101B18002508AB002408AA009B2D2A0886002B085C
:101B28008700260881000130AA070030AB3D01304C
:101B3800A8020030A93B280A031DA62D290A031D67
:101B4800A62DA72D912D08002000A50000320032F7
:101B580000002000250822008F001030890BB22DCC
:101B6800003222000E1107302000A4007D30890BBE
:101B7800BB2DA40BBB2D22000E1500320032000035
:101B880008002100A1005D30A0002108A200A401E6
:101B9800A501AB01AC0120005C08D5005B08D400AE
:101BA800A030D600A2308D316F258D312100240858
:101BB80021072000DF005F088600870181010800F7
:101BC800F000F10123001D1DEA2DEB2DED2D190864
:101BD800022E9D1CF02DF12DF42D1D121D16022E26
:101BE8002000911EF82DF92D022E7008860087011D
:101BF800230019087F398100F101F10A71080800F2
:101C08002000A801A901241C0A2E0B2E0F2E26083D
:101C1800A8072708A93D0130A635A70D890B102E66
:101C28000130A536A40C890B152E24082504031DA4
:101C38001E2E1F2E072E2908A5002808A40008001C
:101C48002000B200B001B1013A2E2F08AD00AE015C
:101C58002D08A4002E08A5002C08A600873173279C
:101C68008E3101302000B0070030B13D3008320716
:101C7800AD002D088600013087000108AF002F084D
:101C8800031D472E482E292E08008F31B2278E318A
:101C9800200025082100B600200024082100B500F6
:101CA8008E302000DB009030DC0021003608200058
:101CB800DE00210035082000DD00AD308D31C5255E
:101CC8008E31AD302000A4000030A5008E316E2684
:101CD8008E310800702E00002000111E742E752E03
:101CE8006F2E2508A8002408A7008D2E2708840039
:101CF80028088500000823009A0001302000A70763
:101D08000030A83D882E000023009E1C8C2E8D2EAE
:101D1800872E200027088400280885001200031D4C
:101D2800962E972E7A2E080021001D1023008C0174
:101D38008D018E018F01900121000C108C100C1167
:101D48008C150C128C1620000C1221008D010E101F
:101D58008E100E118E110E128E120E178E17200075
:101D68000E148E140E158E110E128E12FF302100D5
:101D78008F009001220010109010101108008F3170
:101D880069278E31D03E2000E40004306406031D2C
:101D9800CE2ECF2ED72E00302100D5000830D60009
:101DA80022001014ED2E03306406031DDC2EDD2EF8
:101DB800E52E00302100D5000430D6002200101096
:101DC800ED2E6130A4009030A5008E316E268E3144
:101DD800F52E92302000A4009030A5008E316E269A
:101DE8008E31080000302000AF000030AE00003017
:101DF800AD000030AC00241C022F032F0B2F280845
:101E0800AC072908AD3D2A08AE3D2B08AF3D01308F
:101E1800A835A90DAA0DAB0D890B0C2F0130A736DB
:101E2800A60CA50CA40C890B132F2708260425043F
:101E38002404031D202F212FFF2E2F08A7002E0872
:101E4800A6002D08A5002C08A40008002000B90051
:101E5800631C2F2F302F362F3908AC0033088E31F2
:101E680024268F312000B51F3A2F3B2F3D2FB40178
:101E7800B501B701B8014F2F20302000A400003071
:101E8800A5003908A600873173278F31013020005B
:101E9800B7070030B83D3808803AB6003508803AB0
:101EA8003602031D592F34083702031C5C2F5D2F9F
:101EB800402F20006318612F622F682F3908AC006B
:101EC80033088E3124268F310800882F20008E1584
:101ED80003302000A7008A30A6005530890B722FE6
:101EE800A60B722FA70B722F003220008E11033021
:101EF8002000A7008A30A6005530890B812FA60B39
:101F0800812FA70B812F00328D3128258F31003A80
:101F1800031D8F2F902F6A2F8B1321009112F03001
:101F28002000A6002330A7007C08260786007D082D
:101F3800273D87000108A8007D08A5007C08A400AB
:101F48008D3101258F3120002508FD002408FC0073
:101F58008B172100911620002808080021009112F3
:101F680023001F142000911EBA2FBB2FBE2F230061
:101F78001908E22F0E1607302000A7005830A600D7
:101F88005930890BC52FA60BC52FA70BC52F0032BB
:101F980020000E1207302000A7005830A600593044
:101FA800890BD42FA60BD42FA70BD42F00322300D4
:101FB8009F1FDF2FE02FB62F9F13B62F1C0820007E
:101FC800A600A7012608A700A60123001B082000D9
:101FD8002604A90023001C0820002704AA002908B9
:101FE800AB002A08AC000E122100911620002C0824
:101FF800A5002B08A40008004534723461347334FA
:102008006534203463346834653463346B34203485
:102018006634613469346C34203461347434203467
:102028006134643464347234653473347334203402
:10203800003457347234693474346534203461346C
:1020480062346F3472347434653464340A3400345E
:1020580043346834653463346B3420346134623417
:102068006F3472347434653464340A34003452344E
:102078006534613464342034613462346F347234CA
:1020880074347434653464340A34003441346C3440
:1020980072346534613464347934203469346E348C
:1020A800693474340034303478342534303434347A
:1020B800783420343D34203400346234613464345C
:1020C80020347434793470346534003430347834DE
:1020D80025343034323478340A34003425343034FA
:1020E800343478343A342034003445345234523459
:1020F8004F345234003432343734313436340034C7
:1021080032343734303438340034253430343234CF
:1021180078340034253464340A3400344F344B3472
:02212800003481
:020000040001F9
:04000E00E239FF3E96
:00000001FF
